:03000000020E8D60
:0C0E8D00787FE4F6D8FD758148020ED491
:01002A0022B3
:01003A0022A3
:010049002294
:080003001214E712110A80FB40
:1014E700E531602F43CF10E4F5EF0012179C121778
:1014F700E112174E7D807C257F02121096E4750C51
:1015070080750B25F50AF5097F021213001217F4EF
:091517001217A6120F19D2AF221F
:10110A0043CF10E531603B1215AC7B007A007921A0
:10111A00121520EC4D4E4F60297B007A0079217F11
:10112A00F47E017D007C001216BAE53BFB7A007D55
:10113A00FB7FFA12146BE53CFB7A007DFB7FFA1207
:10114A0014A9900063E030E711547FF01207718F01
:10115A00408E3F8D3E8C3D1217FAE4FFFEFDFCAB3C
:10116A0040AA3FA93EA83DC31205D2600280FE22D2
:0717E10043A12053A2DF2207
:10174E00758E07438901758AF6758CFFC28CD2A9F6
:03175E00D28C2208
:03000B0002142AB2
:10142A00C0E0C0F0C083C082C0D075D000C000C088
:10143A0001C002C003C004C005C006C007758AF611
:10144A00758CFF12170BD007D006D005D004D00335
:10145A00D002D001D000D0D0D082D083D0F0D0E05A
:01146A00324F
:03001B0002004A96
:01004A003283
:03002B000217EECB
:0317EE00C2CF3235
:101096008F088C098D0A5391F343920C4398504361
:1010A6008E02438920438780AF08E4FCFDFE7B4027
:1010B6007A42790FF81204A8C006C007AE09AF0A33
:1010C600AB07AA06E4F9F8D007D0061213E67808AB
:1010D6001205F68F8DAF08E4FCFDFE7B407A42795F
:1010E6000FF81204A8C006C007AE09AF0AAB07AADC
:1010F60006E4F9F8D007D0061213E68F8BC28EC22B
:04110600ABC2AC22AA
:101300008F0853A1FC43A203758FC0759D50AF0891
:10131000E4FCFDFE7B407A42790FF81204A8AB0C86
:10132000AA0BA90AA8091205338F9EAF08E4FCFD99
:10133000FE7B407A42790FF81204A8AB0CAA0BA9E5
:101340000AA80912053378081205E38F9575A901DB
:01135000227A
:0817C100C2998F993099FD22B5
:061550008B138A148915BB
:10155600E4F51CC3E51C9407748094805017AB1304
:10156600AA14A915851C827583001203FEFF1217A3
:07157600C1051C80DE7F00AF
:01157D00224B
:08146B008F088D098A0A8B0B22
:101473007E007F077D007B007A00790C1206B7851A
:10148300080C85090DE50AF50EE50BF50FE50C25AE
:101493000D250E250FF51075110D75120A7B007AB7
:0614A30000790C02155057
:0617E8008F9FE4F51F22B3
:06157E008B138A1489158D
:10158400E4F51DC3E51D9407748094805017AB13D4
:10159400AA14A915851D827583001203FEFF121774
:0715A400E8051D80DE7F0059
:0115AB00221D
:0814A9008F088D098A0A8B0BE4
:1014B1007E007F077D007B007A00790C1206B785DC
:1014C100080C85090DE50AF50EE50BF50FE50C2570
:1014D1000D250E250FF51075110D75120A7B007A79
:0614E10000790C02157EEB
:0317F100AF9F2285
:03003B000216D6D4
:1016D600C0E0E59D30E106539DFD751F01E59D3097
:0B16E600E006539DFE751E01D0E032AF
:0917A600E4F5CE43A904D2AF2200
:03004B0002005957
:010059003274
:0317F400020F19C8
:1015AC00900063E030E711547FF01207718F408E8A
:1015BC003F8D3E8C3D1217FAE4FFFEFDFCAB40AABA
:0E15CC003FA93EA83DC31205D2600280FE2258
:1011E8000000000000000005000A0BB800C80064F9
:1011F80000020000000000040000FFFFFFFFFFFFE7
:1012080000140226040817050154022604081505CF
:101218000161022604080F05009802260408140537
:10122800014C02260408150500A00226040814052E
:10123800014A0226040813050110022604081005B5
:0212480001198A
:0F16F10041007F00C103C102C100C101014700D8
:0C001E00E5CE54F04403F5CE43A90422C3
:03004B000217AFEA
:0917AF0053CEBF53CE7FD20132AC
:0B003E009011F2E493FE740193FF2286
:0B004E009011F6E493FE740193FF2272
:0817C9009011F0740193FF225E
:0317F7007F01224D
:10124A007846E62448F8E6FF25E02401F582E434EE
:10125A0000F583E0FCA3E0FDEF25E02421F582E41C
:10126A003400F583E0FEA3E0C39DFFEE9CAB07FAD2
:02127A00E6FF8D
:10127C00AD07ED75F008A42410F582E43412F58363
:10128C00E493FEED75F008A42411F582E43412F514
:0C129C0083E4937C002400FFEC3EFE2263
:10176100EF75F008A4240DF582E43412F583E493B7
:02177100FF2255
:0817D1009011EA740193FF225C
:0D000E0074592FF582E43400F583E0FF22E1
:0817D900900000E0C313FF22A1
:0A179200900000E075F00384FF22D0
:1017250012127CEF7803C333CE33CED8F9FF7C0099
:051735007D0A02043DE5
:10102000E4FBF508750C38750BD0750A0CF509FA58
:10103000EAC39417748094805059AF0CAE0BAD0A7C
:10104000AC0978011205E38F0C8E0B8D0A8C0930E8
:10105000D73E74192BF582E43400F583EAF0C3E53A
:1010600008940174809480501CE47F01FEFDFCA86C
:101070000212060AEE5402FEEE600AAF080508747A
:10108000482FF8A6030BEBC3940874809480500398
:051090000A809D8B3A6F
:011095002238
:1015DA00EF1460121460141460111460152404705E
:1015EA001990120A800890120B800390120CE4934F
:0D15FA00FF229011FC740193FF227F00225C
:10139D009011EE740193900000F090120874019377
:1013AD00900066F0121020E4FFEFC3953A5020EF45
:1013BD0075F008A4240EF582E43412F583E493FE4F
:1013CD0074592FF582E43400F583EEF00F80DAE4E2
:0913DD00900064F0A3F002001E70
:10077100E4F509F511F510F50FF50E300303020844
:10078100A11217FD500302089312162C8F0D8E0C27
:100791008D0B8C0AE4F508E508C3953A5049AF0D75
:1007A100AE0CAD0BAC0A78011205E38F0D8E0C8DEA
:1007B1000B8C0A30D72DE47F01FEFDFC741925084E
:1007C100F582E43400F583E0F9F812060AE5114FE9
:1007D100F511E5104EF510E50F4DF50FE50E4CF551
:1007E1000E0509050880B0AF097E00C3EF940274BD
:1007F1008094804018D204EF940374809480400563
:1008010012180080081217D1EF6002C20420042CD4
:10081100E4FFFEFDFCAB11AA10A90FA80EC312053F
:10082100D26010900065E004F07006900064E0046E
:10083100F08020E4900064F0A3F08017900062E063
:1008410004F07006900061E004F0E4F511F510F594
:100851000FF50E12003ED3900065E09F900064E01A
:100861009E400A121800E4900064F0A3F0D39000B7
:1008710062E0942C900061E09401500302096B1234
:10088100180090007F7401F0E4900061F0A3F00281
:10089100096B9011F8E4740193FF12097402096B5A
:1008A10085350D85340C85330B85320AE4F508E571
:1008B10008C3953A504CAF08120BB2AF0DAE0CAD58
:1008C1000BAC0A78011205E38F0D8E0C8D0B8C0A8F
:1008D10030D72BE47F01FEFDFC74192508F582E475
:1008E1003400F583E0F9F812060AE5114FF511E538
:1008F100104EF510E50F4DF50FE50E4CF50E050800
:1009010080AD784706E6D3940574809480405BE41B
:10091100F6F508E508C3953A504EE47F01FEFDFC6B
:100921007846E62448F8E6F9F812060AEF5535FF4D
:10093100EE5534FEED5533FDEC55324D4E4F7024DE
:10094100E50825E02421F582E43400F583E0FEA3E7
:10095100E0FFE50825E02401F582E43400F583EEAB
:10096100F0A3EFF0050880ABC203AF11AE10AD0FDD
:02097100AC0ECA
:010973002261
:0E178400D202C203E47846F653A9EF02002A0F
:10173A00C202D20343A910900019E04480F5E8D20E
:04174A00EE02003A71
:10117A007F021215DAEFC454F0F5E17846E6244806
:10118A00F8E6FF1217617E00900082E0FCA3E0FD02
:10119A0012042BEF7802CEC313CE13D8F98EE7F5DB
:1011AA00E67F021215DAEFC454F0FEE4FF1215DAF4
:1011BA00EF2EF5E17846E62448F8E6FF12000EE540
:1011CA00E254804FF5E27846E62448F8E62419F519
:0E11DA0082E43400F583E04480F5E8D2EE2292
:100D270030EDFDC2EDAEE5E5E47802C333CE33CE58
:100D3700D8F9FF7846E62448F8E625E02421F5822D
:100D4700E43400F583EEF0A3EFF0E6FF120BB212E6
:100D5700124AC3EB9FEE6480F8EA648098401678E5
:100D670046E62448F8E62431F582E43400F583E0CA
:100D770004F0D200227846E6FD2448F8E6FC25E098
:100D87002401F582E43400F583E0FAA3E0FBAE0228
:100D97007805CEC313CE13D8F9FFC3EB9FFBEA9EAA
:100DA700FAEC25E02421F582E43400F583E0FEA384
:100DB700E07805CEC313CE13D8F92BFFEA3EFE74B5
:100DC700482DF8E625E02401F582E43400F583EEAA
:040DD700F0A3EFF0A6
:010DDB0022F5
:100C6D00C200E4F545C3E545940874809480505A5C
:100C7D0012117A30EDFDC2EDAEE5E5E47802C33335
:100C8D00CE33CED8F9FF7846E62448F8E625E024A1
:100C9D0021F582E43400F583EEF0A3EFF0E6FF12C8
:100CAD000BB212124AC3EB9FEE6480F8EA6480988F
:100CBD0040137846E62448F8E62431F582E4340002
:100CCD00F583E004F00545020C727846E62448F8F9
:100CDD00E6F92431F582E43400F583E0C394087419
:100CED008094804022E47F01FEFDFCA80112060ADB
:100CFD00E5354FF535E5344EF534E5334DF533E552
:100D0D00324CF53202173A7846E62448F8E624319B
:090D1D00F582E43400F583E4F0F2
:010D260022AA
:1017730043CE80C201438702000000000000000046
:011783002243
:1016510012117A121773120D27300003120C6D301C
:10166100020F784606E6C39401748094804002E438
:04167100F602004934
:04170000410086001E
:100A930075F0029000671206ABE0FEA3E0FFE514D9
:100AA30075F0029000210206ABE51375F002900089
:100AB300010206ABE51375F0029000410206AB7428
:100AC300312517F582E43400F58322D3E5159FEE33
:100AD3006480F8E5146480982274512513F582E448
:100AE3003400F58322D3FFED9FEE6480F8EC64803D
:100AF300982274772513F582E43400F58322E00409
:100B0300F074112513F582E43400F58322E514759E
:100B1300F0029000670206ABFEC3E5169FEE648009
:100B2300F8E51564809822E5355539FFE5345538E5
:100B3300FEE5335537FDE5325536FC227E00900045
:100B430082E0FCA3E0FD12042B8EE78FE67F0222F6
:100B530074392513F582E43400F58322E0FEA3E023
:100B6300FF75F00222E4F0FFFEFDFCAB35AA34A9C9
:100B730033A832C30205D2A4FFE0C39FE5F064802B
:100B8300F8748098227D0A12043DAD037C000204B0
:100B93002BE0FCA3E0C39F22900066E0FB3395E0CB
:0F0BA300FAEBAE0222900066E0FF3395E0FE22EF
:0C002E00EF4E6007EF1F70F81E80F522F7
:020FA1008F0AB5
:100FA30012000E900089EFF0AF0A121761EFFB9069
:100FB3000083E025E0FF900082E033FE7C00120B0B
:100FC30088E50A120AAE120B94EC9E500990008930
:100FD300E06049148036AF0A121761EFFB9000827C
:100FE300E0FEA3E0FF7C007D0712042B120B887543
:100FF300F002E50A120AB1E0FCA3E0D39FEC9E40A5
:101003001B900089E0FF647E6012EF04FF74592592
:0C1013000AF582E43400F583EFF0D2050A
:01101F0022AE
:03005B00020DDCB7
:100DDC00C0E0C0F0C083C082C0D075D000C000C0DD
:0D0DEC0001C002C003C004C005C006C0075E
:100DF900C206900087E0120AA3E5E5F0A3E5E4F056
:100E0900900087E004F0E0C3953A400BE4F09000CD
:100E190063E04480F08002D2067F021215DAEFC443
:100E290054F0F5E1900087E0FF121761120B3F12B1
:100E390015DAEFC454F0FEC006E4FF1215DAD0E06B
:100E49002FF5E1900087E0FF12000EE5E254804F94
:100E5900F5E2900087E02419F582E43400F583E097
:090E69004480F5E8300602D2EEE7
:100E7200D007D006D005D004D003D002D001D000D4
:0B0E8200D0D0D082D083D0F0D0E0327E
:100F190075FE8543FF2043B910D2AF75E880C2053D
:100F2900E4900087F0900063F012139DE4FF12151E
:100F3900DAEF2401FDE433FC7E0B7FB812043D9007
:100F49000082EEF0A3EFF0E4FF121761120B3F12DB
:100F590015DAEFC454F0FEC006E4FF1215DAD0E04A
:100F69002FF5E17F041215DAEF6008E5E2548044B9
:100F790080F5E27F031215DAE5E254804FF5E27F4E
:100F8900011215DA8FE312135143A910900019E0E9
:080F990042E81212A8021675CD
:0317FA00D2EE220A
:10160700E4FD900063E0547FF0D2EE900063E020A9
:10161700E7127FE87E0312002E43CF100DEDC3942F
:041627003240E82243
:01162B00229C
:1012A800750820121607E4F509E509C3953A501B9D
:1012B800E509120AA3120B5FE509120AB1EEF0A3C1
:1012C800EFF0AF09120FA1050980DEAF081508EF8E
:1012D80070D11216991217C98F08121607E4F5096A
:1012E800E509C3953A5009AF09120BB2050980F018
:0712F800AF081508EF70E3D9
:0112FF0022CC
:10167500E4FFEFC3953A501B75F002EF120AA6E09E
:10168500FCA3E0FD75F002EF120AB1ECF0A3EDF05A
:031695000F80DFE4
:01169800222F
:10162C00E4900088F0F512E512C3953A500EAF1213
:10163C00120BB2AF1212005E051280EBAF35AE3456
:04164C00AD33AC32DC
:011650002277
:02005E008F13FE
:10006000E4F51B75F002EF120AB1120B5FE51312F3
:100070000AA6120B94F515EC9EF514E47F01FEFD23
:10008000FCA913A80112060A8F398E388D378C36D9
:10009000AF1312127C8E198F1AC3E515951AE51944
:1000A000120AD340057516018003E4F516E51664BF
:1000B0000160030201E574312513120AC6E0C394FE
:1000C000FA500A74312513120AC6E004F0120B2A02
:1000D000E4FBFAF9F8C31205D260030201C89000EC
:1000E00000E0F5181217F7EF6028E4F516F517E5AC
:1000F00017C3953A500F120AC2E0C394014002059B
:1001000016051780EAE516C394034006740F2518F8
:10011000F51874312513120AC6E0C395185003026E
:1001200001C8E4F5161217D1EF7051F517E517C3A2
:10013000953A501AE51365176010121792120AC209
:10014000E0C39F40057516018004051780DF121774
:10015000F7EF7052E516704EF517E517C3953A5054
:1001600045E5136517601112179274392517120BA4
:1001700057E0C39F4002802B051780DE1217F7EF70
:100180007024F518F517E517C3953A500F120AC2F7
:10019000E0C3940240020518051780EAE518C394ED
:1001A000034003751601E516B40102D204E5354596
:1001B00039FFE5344538FEE5334537FDE532453650
:1001C0008F358E348D33F532120ADCE4F0120AF5E5
:1001D000E4F0120AB7E4F0A3F074112513F582E4F9
:1001E00034000203BBAF13121725120ACE400812C7
:1001F0000B53E004F0800B900088E004F0120B53E6
:10020000E4F0120BA8C3E49FFDE49EFCC3E5159D3A
:10021000EC120AD34066120ACE5061120ADCE412D4
:100220000B03120B686003020328120AB7E514855A
:1002300015F012049212004E120AB7E0FCA3E0C3BC
:10024000120AEB4009120AACE475F0018021120099
:100250004EC3E49FFFE49EFE120AB7E0FCA3E0C396
:10026000120AEB4003020328120AAC74FFF5F012E5
:100270000492120AB7E4F0A3F0020328900066E0AB
:10028000FFFD3395E0FCC3E49DFDE49CFCC3E51554
:100290009DEC120AD3505A120ADC120B01E4F01240
:1002A0000ADCE0FE75F00A84E5F07037EEC3946472
:1002B000400E120ADCE4F0D20590007F04F08023A7
:1002C000120AACC083C082E0FCA3E0FDEFA2E713FA
:1002D000FF3395E0FEC3ED9FFFEC9ED082D083F00C
:1002E000A3EFF0900081E06513703D74FFF002030E
:1002F00028120BA8120ACE402F120ADC120B6870CB
:1003000027120B04120B01E0B4201D120B04E4F0C1
:10031000900066E0A2E713A2E713FF3395E0FE1218
:100320000AACEE8FF0120492120B2A4D4E4F70035E
:100330000203C7E51AAE197802CEA2E713CE13D88E
:10034000F8FFC3E51A9FFFE5199EFEC3120ACF50BE
:100350006F120AF5E004F01217D98F18E4F517E5CB
:1003600017C3953A500F120AC2E0C3940140020528
:1003700016051780EAE516C394034006900000E0D6
:10038000F518120AF5E0C395184072120AF5E4F068
:10039000AF39AE38AD37AC361205C5E5355FFFE590
:1003A000345EFEE5335DFDE5325C8F358E348D3392
:1003B000F53274312513F582E43400F583E4F0223C
:1003C000120AF5E014F02274312513120AC6E4F083
:1003D000E53A1465137026900088E0C3953A401DF5
:1003E000E4F517E517C3953A500D120AC2E0600311
:0D03F000751601051780ECE5167002C204B9
:0103FD0022DD
:10169900E4FFEFC3953A501875F002EF120AA6E07D
:1016A900FCA3E0FDEF120B12ECF0A3EDF00F80E2CA
:0116B900220E
:020BB2008F149E
:100BB400EF120A93120B94F516EC9EF515AF14126E
:100BC400127CAD07AC06D3E5169DEC120B21500B3D
:100BD400C3E49DFFE49C120B1B500B120AA1E0FE20
:100BE400A3E0FF020C5AECA2E713FEED13FFD312AD
:100BF4000B1D500BC3E49FFFE49E120B1B502712E6
:100C04000B10E0FCA3E0FDECC313FEED13FFC3EDFA
:100C14009FFDEC9EFC120AA1E0C313FEA3E0132D7A
:100C2400FFEC3EFE8030120B10E0FCA3E0FDAE04AE
:100C34007803CEC313CE13D8F9FFC3ED9FFDEC9E0A
:100C4400FC120AA1E0FEA3E07803CEC313CE13D8AE
:100C5400F92DFFEC3EFE120B10EEF0A3EFF0E514BD
:080C6400120A93EEF0A3EFF079
:010C6C002265
:0317FD00A2052220
:03180000D20522EC
:10135100E4FFEFC3953A502B74312F120AC6E4F023
:1013610074512F120AE0E4F074772F120AF9E4F0B5
:10137100EF120AB9E4F0A3F074392F120B57E4F01D
:101381000F80CFE4F535F534F533F53290008174F3
:0B139100FFF0E4900084F0A3F0C20520
:01139C00222E
:020974008F12E0
:10097600900086E0C394034035E4F090007FE07079
:1009860022F513E513C3953A501975F002E51312D3
:100996000B15120B5FE513120AB1EEF0A3EFF0058B
:1009A6001380E0121351C205E490007FF0229000FC
:1009B60080E004F0E0B51208121699E4900081F088
:1009C600900080E0D395125003020A92E4F513E5F5
:1009D60013C3953A507A75F002E513120B15120BF4
:1009E6005FE513120AA6120B94FFEC9EAD07FC906E
:1009F600007FE07029120B9B7802C333CE33CED82A
:100A0600F9120AE84040E49BFFE49AFEEF7802C33D
:100A160033CE33CED8F9C3120AE9502A8032120BEC
:100A26009B7803C333CE33CED8F9120AE84017E4D5
:100A36009BFFE49AFEEF7803C333CE33CED8F9FF9B
:100A4600C3120AEA400AAF13120BB205130209D504
:100A5600E513B53A06900081E004F0E51275F0085A
:100A6600900080120B7A4024E4F0C204900086E0E5
:100A760004F0E51275F004900081120B7A400DE443
:0C0A8600900086F0121675121351C20584
:010A92002241
:061704000441000000009A
:0A179C00E4F544F543F542F541225F
:10170B00AF44AE43AD42AC41EF2401F544E43EF5AA
:0A171B0043E43DF542E43CF54122B1
:0917B800AF44AE43AD42AC412246
:1016BA008F0B8E0A8D098C081217B812064DAF0BC4
:0C16CA00AE0AAD09AC08900004020667EF
:101520008B088A09890A90000412061D12068BC3D3
:10153000E5449BFBE5439AFAE54299F9E54198F8C1
:10154000C31205D2E440047F018001FFFEFDFC22AE
:100E9900020003E493A3F8E493A34003F68001F26C
:100EA90008DFF48029E493A3F85407240CC8C3335A
:100EB900C4540F4420C8834004F456800146F6DF29
:100EC900E4800B01020408102040809016F1E47EB2
:100ED900019360BCA3FF543F30E509541FFEE4931E
:100EE900A360010ECF54C025E060A840B8E493A3E5
:100EF900FAE493A3F8E493A3C8C582C8CAC583CA10
:100F0900F0A3C8C582C8CAC583CADFE9DEE780BEC7
:01170A0000DE
:1003FE00BB010CE58229F582E5833AF583E02250B4
:10040E0006E92582F8E622BBFE06E92582F8E222FD
:0D041E00E58229F582E5833AF583E4932217
:10042B00EF8DF0A4A8F0CF8CF0A428CE8DF0A42EE5
:02043B00FE229F
:10043D00BC000BBE0029EF8DF084FFADF022E4CCA3
:10044D00F875F008EF2FFFEE33FEEC33FCEE9DEC6C
:10045D00984005FCEE9DFE0FD5F0E9E4CEFD22EDB2
:10046D00F8F5F0EE8420D21CFEADF075F008EF2FFC
:10047D00FFED33FD4007985006D5F0F222C398FDED
:05048D000FD5F0EA228A
:10049200C5F0F8A3E028F0C5F0F8E58215827002F5
:0604A2001583E038F02292
:1004A800E88FF0A4CC8BF0A42CFCE98EF0A42CFCF3
:1004B8008AF0EDA42CFCEA8EF0A4CDA8F08BF0A471
:1004C8002DCC3825F0FDE98FF0A42CCD35F0FCEBD0
:1004D8008EF0A4FEA9F0EB8FF0A4CFC5F02ECD3995
:0F04E800FEE43CFCEAA42DCE35F0FDE43CFC2202
:1004F70075F008758200EF2FFFEE33FECD33CDCCBC
:1005070033CCC58233C5829BED9AEC99E58298403E
:100517000CF582EE9BFEED9AFDEC99FC0FD5F0D61B
:10052700E4CEFBE4CDFAE4CCF9A88222B800C1B945
:100537000059BA002DEC8BF084CFCECDFCE5F0CB83
:10054700F97818EF2FFFEE33FEED33FDEC33FCEBBC
:1005570033FB10D703994004EB99FB0FD8E5E4F977
:10056700FA227818EF2FFFEE33FEED33FDEC33FC64
:10057700C933C910D7059BE99A4007EC9BFCE99A58
:10058700F90FD8E0E4C9FAE4CCFB2275F010EF2F9D
:10059700FFEE33FEED33FDCC33CCC833C810D7079D
:1005A7009BEC9AE899400AED9BFDEC9AFCE899F8D8
:0E05B7000FD5F0DAE4CDFBE4CCFAE4C8F9226B
:1013E600C2D5E830E70FB2D5E4C39BFBE49AFAE432
:1013F60099F9E498F8EC30E717B2D512141C1205E7
:1014060033E4C39BFBE49AFAE499F9E498F8800381
:1014160012053330D50DE4C39FFFE49EFEE49DFD27
:04142600E49CFC2224
:0D05C500CFF4CFCEF4CECDF4CDCCF4CC22CB
:1005D200EB9FF5F0EA9E42F0E99D42F0E89C45F07F
:0105E20022F6
:1005E300E8600FECC313FCED13FDEE13FEEF13FFF6
:0305F300D8F1221A
:1005F600E86010ECA2E713FCED13FDEE13FEEF131B
:04060600FFD8F02207
:10060A00E8600FEFC333FFEE33FEED33FDEC33FC4E
:03061A00D8F122F2
:10061D00BB010DE58229F582E5833AF5830206EFEC
:10062D005007E92582F80206E3BBFE07E92582F8AB
:10063D000206FBE58229F582E5833AF58302070779
:10064D00BB010789828A830207595005E9F8020721
:0A065D004DBBFE05E9F80207652217
:10066700BB010DE58229F582E5833AF58302075937
:100677005007E92582F802074DBBFE07E92582F8F6
:0406870002076522DF
:10068B00BB010789828A830207245005E9F8020718
:10069B0017BBFE05E9F802073089828A8302073D02
:0C06AB00A42582F582E5F03583F583225A
:1006B700EF4E6012EF60010EEDBB010B89828A835A
:1006C700F0A3DFFCDEFA2289F05007F709DFFCA967
:0C06D700F022BBFEFCF309DFFCA9F022BE
:0C06E300E6FC08E6FD08E6FE08E6FF2243
:0C06EF00E0FCA3E0FDA3E0FEA3E0FF227E
:0C06FB00E2FC08E2FD08E2FE08E2FF223B
:10070700E493FC740193FD740293FE740393FF2238
:0D071700E6FB08E6F908E6FA08E6CBF82252
:0C072400E0F8A3E0F9A3E0FAA3E0FB2258
:0D073000E2FB08E2F908E2FA08E2CBF82249
:10073D00E493F8740193F9740293FA740393FB2212
:0C074D00ECF608EDF608EEF608EFF622D8
:0C075900ECF0A3EDF0A3EEF0A3EFF02213
:0C076500ECF208EDF208EEF208EFF222D0
:00000001FF
