:030000000214984F
:1014980078FFE4F6D8FD9000007F007E04E4F0A316
:0A14A800DFFCDEFA7581800214ED0E
:0100090022D4
:01000A0022D3
:01003A0022A3
:091EC900121BE4121B0880FB222D
:101BE40012001E7D807C257F021215BA7525807532
:101BF40024257523007522007F02121907121E592D
:101C0400121E24756E01756D0F12153243CF10D25A
:021C1400AF22FD
:101B080043CF10121CD57B007A00793B1218AFEC3A
:101B18004D4E4F60297B007A00793B7F647E007DC3
:101B2800007C00121C16AF3AEFFB7A007DFB7FFAAF
:0F1B380012195CAB4CAA4B7DFB7FFA1219A82245
:101C7900AF6D7E00EF640F4E700D756D64753A118E
:101C8900754B00754C3322AF6D7E00EF64644E7066
:0E1C99000C756D0F753A22754B00754C442288
:101AC800AF087E00EF4E701C7508015380F9438003
:101AD800027516007517007518007519007515013F
:101AE800750900227508005380F9438004751600B3
:101AF800751700751800751900751500750901220C
:041EE400753A032226
:041EE800753A042221
:041EEC00753A02221F
:041EF000753A01221C
:041EF400753A052214
:041EF800753A06220F
:041EFC00753A092208
:031DDA00016E0196
:0F1E5900439A0743A120C280C2A5C281C2822240
:101E2400758E07438901758AA2758CFEC28CD2A96E
:031E3400D28C222B
:03000B00020C38AC
:100C3800C0E0C0F0C083C082C0D075D000C000C082
:100C480001C002C003C004C005C006C007758AA25F
:100C5800758CFE121DB9056CAF6C7E00D3EF9464E1
:100C6800EE648094804003756C00E56CC3956D401C
:100C780004C2808002D2807F007E407D007C00AB71
:100C880011AA10A90FA80EC31202327038AF6E7ED7
:100C980000EF64014E702E751111751011750F005B
:100CA800750E00C3E51D94E8E51C9403500A051D64
:100CB800E51D7002051C8057751C00751D00D2A526
:100CC800756E00804A7F007E407D007C00AB11AAD3
:100CD80010A90FA80EC31202327034AF6E7E00EF57
:100CE8004E702C751111751011750F00750E00C31B
:100CF800E51D94E8E51C9403500A051DE51D7002E6
:100D0800051C800B751C00751D00C2A5756E01E5DC
:100D18001560220517E51770020516D3E51794DC50
:100D2800E5169405400F75160075170075150075C2
:100D380009015380F9E50960220519E519700205D2
:100D480018D3E51994DCE5189405400F751800755B
:100D580019007515017509005380F9E50D60210525
:100D68001BE51BAE1A7002051A14FFD3EF9408EEA8
:100D78009407400C751A00751B00750D00753A2113
:100D8800E50A60230514E514AE137002051314FF79
:100D9800D3EF9410EE940E400E7513007514007581
:100DA8000A00C2A5753A20D007D006D005D004D0D5
:100DB80003D002D001D000D0D0D082D083D0F0D0E0
:020DC800E03217
:03002B00021F00B1
:031F0000C2CF321B
:03001B0002004A96
:01004A003283
:100A0D007F007E007D007C00AB6BAA6AA969A86897
:100A1D00C31202327003020BC7AF6BAE6AAD69AC85
:100A2D00688F118E108D0F8C0E7F087E007D007CDF
:100A3D0000AB11AA10A90FA80EC31202327014E553
:100A4D006E6010E5127003020BD7751200121C793F
:100A5D00020BD77F107E007D007C00AB11AA10A980
:100A6D000FA80EC31202327014E56E6010E51270FD
:100A7D0003020BD7751200121AC8020BD77F207E06
:100A8D00007D007C00AB11AA10A90FA80EC31202A5
:100A9D00327014E56E6010E5127003020BD77512FB
:100AAD0000121EE4020BD77F007E107D007C00AB90
:100ABD0011AA10A90FA80EC31202327014E56E60B0
:100ACD0010E5127003020BD7751200121EFC020BFB
:100ADD00D77F007E407D007C00AB11AA10A90FA826
:100AED000EC3120232700DE5127003020BD7751290
:100AFD0000020BD77F007E807D007C00AB11AA1019
:100B0D00A90FA80EC31202327014E56E6010E51223
:100B1D007003020BD7751200121EF0020BD77F0067
:100B2D007E007D047C00AB11AA10A90FA80EC31284
:100B3D0002327014E56E6010E5127003020BD7756A
:100B4D001200121EEC020BD77F007E007D087C0088
:100B5D00AB11AA10A90FA80EC31202327010E56EC8
:100B6D00600CE5126064751200121EE8805C7F0057
:100B7D007E017D007C00AB11AA10A90FA80EC31237
:100B8D0002327010E56E600CE512603E75120012B7
:100B9D001EF480367F007E027D007C00AB11AA1012
:100BAD00A90FA80EC31202327020E56E601CE5126B
:100BBD006018751200121EF88010E512700C751277
:100BCD0001753A55754B00754C00121E77EF605A42
:100BDD00AF527E00EF7F00FEAD537C00EE4CFEEF7A
:100BED004DFFE4FCFD8F678E668D658C647E007F06
:100BFD00077D007B007A007950120377AC64AD65F8
:100C0D00AE66AF6712033D0C24000000330C2E00BE
:100C1D0000004400000C37751201753A11756D64B2
:0B0C2D0022751201753A22756D0F222E
:101CD50043CF10900063E0FFEF30E71C900063E016
:101CE500FFEF547FFF900063EFF01207D18F6B8EEB
:0C1CF5006A8D698C68121F06120A0D220D
:1015BA008F218C228D235391F343920C43985043ED
:1015CA008E02438920438780AF21E4FCFDFE7B40E5
:1015DA007A42790F7800120108C004C005C006C01B
:1015EA0007AE22AF23AB07AA06E4F9F8D007D00664
:1015FA00D005D004121A8478081202568F8DAF21B2
:10160A00E4FCFDFE7B407A42790F7800120108C0A3
:10161A0004C005C006C007AE22AF23AB07AA06E482
:10162A00F9F8D007D006D005D004121A848F8BC2DD
:06163A008EC2ABC2AC221F
:101907008F2153A1FC43A203758FC0759D50AF2152
:10191700E4FCFDFE7B407A42790F7800120108ABA8
:1019270025AA24A923A8221201938F9EAF21E4FCA4
:10193700FDFE7B407A42790F7800120108AB25AA99
:1019470024A923A82212019378081202438F9575C0
:05195700A901D2AF223E
:0B004E008F2FC299852F993099FD2259
:061B7E008B2C8A2D892E3C
:101B8400754D00AF4D7E00C3EF9407EE64809480E2
:101B94005018AB2CAA2DA92EAF4D8F82758300123D
:0C1BA400005EFF12004E054D80D97F004E
:011BB0002212
:08195C008F218D228A238B24C8
:101964007E007F077D007B007A007925120377854E
:101974002125852226E523FF7E00EF54FFF527AFBE
:1019840024EF54FFF528E5252526FFEF2527FFEF53
:101994002528F529752A0D752B0A7B007A007925EF
:0319A400121B7E95
:0119A700221D
:0D000E008F2F852F9FE55860FC755800224C
:061BB1008B2C8A2D892E09
:101BB700754E00AF4E7E00C3EF9407EE64809480AD
:101BC7005018AB2CAA2DA92EAF4E8F827583001209
:0C1BD700005EFF12000E054E80D97F005A
:011BE30022DF
:0819A8008F218D228A238B247C
:1019B0007E007F077D007B007A0079251203778502
:1019C0002125852226E523FF7E00EF54FFF527AF72
:1019D00024EF54FFF528E5252526FFEF2527FFEF07
:1019E0002528F529752A0D752B0A7B007A007925A3
:0319F000121BB116
:0119F30022D1
:06000300859F5AAF5A224E
:0E1E7700E55930E7067559007F01227F0022F1
:10179C001200038F57E5595480FF7E00EF4E704EB8
:1017AC00E55930E612AF577E00EF640A4E700475AF
:1017BC0059802275590022AF577E00EF640D4E7090
:1017CC000475594022AF5974502FF8A6570559AFDC
:1017DC00507E00EF64FA4E6003755900AF597E00DD
:0F17EC00D3EF9407EE6480948040037559002278
:03003B00021C485C
:101C4800C0E0C0D075D000C000C006C007E59D3018
:101C5800E106539DFD755801E59D30E006539DFE54
:101C6800754F0112179CD007D006D000D0D0D0E015
:011C78003239
:10173A000000000000000005000A0BB800C80064A1
:10174A0000020000000000040000FFFFFFFFFFFF8F
:10175A000014022604081705015402260408150578
:10176A000161022604080F050098022604081405E0
:10177A00014C02260408150500A0022604081405D7
:10178A00014A02260408130501100226040810055E
:02179A00011933
:0F1DDD0041007F00C103C102C100C101017F00AD
:0E1E8500E5CE54F0FFEF4403F5CE43A904224E
:03004B00021ED2C0
:091ED20053CEBF53CE7FD2013282
:0B1E9300901744E493FE740193FF22BB
:0B1E9E00901748E493FE740193FF22AC
:0B1EA900901742E493FE740193FF22A7
:031F03007F012239
:101B47008F38AF38EF75F008A42462F582E43417B4
:101B5700F583E493FF7E00EF7F00FEAD38ED75F06F
:101B670008A42463F582E43417F583E493FD7C002D
:071B7700EF2DFFEE3CFE2202
:101E0E008F39AF39EF75F008A4245FF582E43417EB
:061E1E00F583E493FF22AE
:0B1EB40090173CE493FE740193FF22A2
:101E37008F39AF3974592FF582E43400F583E0FF09
:011E47002278
:0A1EBF00900000E0FFEFC313FF22C4
:0C002E00900000E0FFEF75F00384FF225B
:021D01008F351C
:101D0300AF35121B478E368F37AE36E5377803C3B0
:101D130033CE33CED8F9FF7C007D0A12009D8E3678
:061D23008F37AE36AF372A
:011D29002297
:1013F5007523007524007528387527D075260C755A
:101405002500752200AF227E00C3EF9417EE64809D
:101415009480507BAF28AE27AD26AC25780112020B
:10142500438F288E278D268C2530D75EAF237419E0
:101435002FF582E43400F583E522F0AF247E00C366
:10144500EF9401EE64809480502F7F017E007D0033
:101455007C00A922A80112026AEF5400FFEE540293
:10146500FEED5400FDEC5400FCEC4D4E4F600AAF10
:1014750024052474802FF8A6230523AF237E00C3FB
:10148500EF9408EE648094805005052202140A85C5
:021495002363CF
:011497002232
:101A40008F39E5391203171A5A001A61011A680210
:101A50001A6F031A760400001A8190175CE493FF52
:101A60002290175DE493FF2290175EE493FF22908B
:101A7000175EE493FF2290174EE493FE740193FFE8
:041A8000227F00229F
:1017FB00901740E493FE740193FF900000EFF0907C
:10180B00175AE493FE740193FF900066EFF01213E6
:10181B00F5752100E521C395635025AF21EF75F0D8
:10182B0008A42460F582E43417F583E493FFAE211A
:10183B0074592EF582E43400F583EFF0052180D442
:0B184B00900064E4F0A3E4F0121E859E
:01185600226F
:1007D100752200752A0075290075280075270030DB
:1007E100030302091F121F09500302090F121D4FB3
:1007F1008F268E258D248C23752100E521C39563D9
:10080100504DAF26AE25AD24AC2378011202438FA3
:10081100268E258D248C2330D7317F017E007D00EB
:100821007C00AB2174192BF582E43400F583E0F9E7
:10083100A80112026AE52A4FF52AE5294EF529E5B4
:10084100284DF528E5274CF5270522052180ACAF79
:10085100227E00C3EF9402EE64809480401ED20495
:10086100AF227E00C3EF9403EE64809480400512B2
:100871001F0C8008121EB4EF6002C2042004307FF6
:10088100007E007D007C00AB2AAA29A928A827C3E5
:100891001202326010900065E004F070069000646E
:1008A100E004F08024900064E4F0A3E4F0801A9066
:1008B1000062E004F07006900061E004F0752A0027
:1008C100752900752800752700121E93900064E0B9
:1008D100FCA3E0FDD3ED9FEC9E400B121F0C90009A
:1008E10064E4F0A3E4F0900061E0FEA3E0FFD3EF45
:1008F100942CEE94015003020A04121F0C90007F05
:100901007401F0900061E4F0A3E4F0020A0490178E
:100911004AE493FE740193FF12104B020A04AF5E86
:10092100AE5DAD5CAC5B8F268E258D248C2375214D
:1009310000E521C395635050AF21121289AF26AE55
:1009410025AD24AC2378011202438F268E258D24F8
:100951008C2330D72F7F017E007D007C00AB21747A
:10096100192BF582E43400F583E0F9A80112026A3B
:10097100E52A4FF52AE5294EF529E5284DF528E523
:10098100274CF527052180A9787F06787FE6FF7E31
:1009910000D3EF9405EE648094804067787F760001
:1009A100752100E521C3956350577F017E007D00CD
:1009B1007C00787EE6FB74802BF8E6F9A801120230
:1009C1006AEF555EFFEE555DFEED555CFDEC555B46
:1009D100FCEC4D4E4F7026AF21EF25E02421F5822E
:1009E100E43400F583E0FEA3E0FFAD21ED25E02432
:1009F10001F582E43400F583EEF0A3EFF0052180E8
:0B0A0100A2C203AF2AAE29AD28AC272B
:010A0C0022C7
:0F1E6800D202C203787E760053A9EF120009223E
:101DF700C202D20343A910900019E0FFEF4480F517
:071E0700E8D2EE12000A22EE
:1016BF007F02121A40EFC454F0F5E1787EE6FF7412
:1016CF00802FF8E6FF121E0E7E00900082E0FCA332
:1016DF00E0FD12008BEF7802CEC313CE13D8F9FFC3
:1016EF008EE78FE67F02121A40EFC454F0FD7F00A1
:1016FF00121A40EF2DF5E1787EE6FF74802FF8E6A1
:10170F00FF121E37E5E25480FEEF4EF5E2787EE6DB
:10171F00FF74802FF8E6FF74192FF582E43400F57B
:0B172F0083E0FFEF4480F5E8D2EE22DB
:100DCA0030EDFDC2EDAEE5E5E47802C333CE33CEB5
:100DDA00D8F9FF787EE6FD74802DF8E6FDED25E072
:100DEA002421F582E43400F583EEF0A3EFF0787E57
:100DFA00E6FF74802FF8E6FF121289787EE6FF7408
:100E0A00802FF8E6FFEF25E02401F582E43400F5AF
:100E1A0083E0FEA3E0FF787EE6FD74802DF8E6FD10
:100E2A00ED25E02421F582E43400F583E0FCA3E01B
:100E3A00FDC3ED9FF577EC9EF576787EE6FF74802C
:100E4A002FF8E6FF121B478E788F79C3E5779579DD
:100E5A00E5786480F8E576648098401A787EE6FF43
:100E6A0074802FF8E6FF74312FF582E43400F5839D
:100E7A00E004F0D20022787EE6FF74802FF8E6FFC5
:100E8A00EF25E02401F582E43400F583E0FEA3E0D7
:100E9A00FFEF7805CEC313CE13D8F9FF787EE6FDAF
:100EAA0074802DF8E6FDED25E02401F582E4340096
:100EBA00F583E0FCA3E0FDC3ED9FFDEC9EFC787E8C
:100ECA00E6FF74802FF8E6FFEF25E02421F582E49F
:100EDA003400F583E0FEA3E0FFEF7805CEC313CE1E
:100EEA0013D8F9FFED2FFFEC3EFE787EE6FD748005
:100EFA002DF8E6FDED25E02401F582E43400F583C2
:050F0A00EEF0A3EFF082
:010F0F0022BF
:100F1000C200757100AF717E00C3EF9408EE64806B
:100F200094804003020FE21216BF30EDFDC2EDAE19
:100F3000E5E5E47802C333CE33CED8F9FF787EE618
:100F4000FD74802DF8E6FDED25E02421F582E434E2
:100F500000F583EEF0A3EFF0787EE6FF74802FF8C3
:100F6000E6FF121289787EE6FF74802FF8E6FFEF25
:100F700025E02401F582E43400F583E0FEA3E0FFE0
:100F8000787EE6FD74802DF8E6FDED25E02421F560
:100F900082E43400F583E0FCA3E0FDC3ED9FF5732C
:100FA000EC9EF572787EE6FF74802FF8E6FF121B48
:100FB000478E748F75C3E5739575E5746480F8E5A5
:100FC000726480984017787EE6FF74802FF8E6FF01
:100FD00074312FF582E43400F583E004F0057102EA
:100FE0000F15787EE6FF74802FF8E6FF74312FF539
:100FF00082E43400F583E0FF7E00C3EF9408EE64E2
:10100000809480402F7F017E007D007C00787EE60A
:10101000FB74802BF8E6F9A80112026AE55E4FF531
:101020005EE55D4EF55DE55C4DF55CE55B4CF55BC5
:10103000121DF722787EE6FF74802FF8E6FF7431E8
:0A1040002FF582E43400F583E4F09C
:01104A002283
:101E480043CE80C20143870200000000000000006A
:011E58002267
:101CA7001216BF121E48120DCA300003120F103051
:101CB7000218787E06787EE6FF7E00C3EF9401EE79
:0E1CC700648094804004787E760012003A22F9
:041DEC00410086002C
:10116A0075F00290006712030BE0FEA3E0FFE52D85
:10117A0075F00290002102030BE52C75F002900035
:10118A000102030BE52C75F00290004102030B7477
:10119A00312530F582E43400F58322D3E52E9FEE23
:1011AA006480F8E52D648098227451252CF582E438
:1011BA003400F58322D3FFED9FEE6480F8EC64805F
:1011CA0098227477252CF582E43400F58322E00412
:1011DA00F07411252CF582E43400F58322E52D758F
:1011EA00F00290006702030BFEC3E52F9FEE6480B6
:1011FA00F8E52E64809822E55E5562FFE55D55614B
:10120A00FEE55C5560FDE55B555FFC227E009000C3
:10121A0082E0FCA3E0FD12008B8EE78FE67F0222BC
:10122A007439252CF582E43400F58322E0FEA3E02C
:10123A00FF75F00222E4F0FFFEFDFCAB5EAA5DA999
:10124A005CA85BC3020232A4FFE0C39FE5F064809E
:10125A00F8748098227D0A12009DAD037C0002007A
:10126A008BE0FCA3E0C39F22900066E0FB3395E08D
:0F127A00FAEBAE0222900066E0FF3395E0FE2211
:0C003E00EF4E6007EF1F70F81E80F522E7
:021640008F23F6
:10164200121E37900089EFF0AF23121E0EEFFB90AF
:101652000083E025E0FF900082E033FE7C0012125E
:101662005FE52312118512126BEC9E5009900089DE
:10167200E06049148036AF23121E0EEFFB90008209
:10168200E0FEA3E0FF7C007D0712008B12125F7563
:10169200F002E523121188E0FCA3E0D39FEC9E4008
:1016A2001B900089E0FF647E6012EF04FF745925ED
:0C16B20023F582E43400F583EFF0D2054C
:0116BE002209
:03005B0002134449
:10134400C0E0C0F0C083C082C0D075D000C000C06F
:0D13540001C002C003C004C005C006C007F0
:10136100C206900087E012117AE5E5F0A3E5E4F00A
:10137100900087E004F0E0C39563400BE4F0900037
:1013810063E04480F08002D2067F02121A40EFC46B
:1013910054F0F5E1900087E0FF121E0E12121612B2
:1013A1001A40EFC454F0FEC006E4FF121A40D0E028
:1013B1002FF5E1900087E0FF121E37E5E254804FE0
:1013C100F5E2900087E02419F582E43400F583E02A
:0913D1004480F5E8300602D2EE7A
:1013DA00D007D006D005D004D003D002D001D00067
:0B13EA00D0D0D082D083D0F0D0E03211
:1015320075FE8543FF2043B910D2AF75E880C2051E
:10154200E4900087F0900063F01217FBE4FF121A98
:1015520040EF2401FDE433FC7E0B7FB812009D9026
:101562000082EEF0A3EFF0E4FF121E0E121216122A
:101572001A40EFC454F0FEC006E4FF121A40D0E055
:101582002FF5E17F04121A40EF6008E5E25480442F
:1015920080F5E27F03121A40E5E254804FF5E27FC4
:1015A20001121A408FE31219F443A910900019E0B6
:0815B20042E8121857021D74F3
:031F0600D2EE22F6
:101D2A00E4FD900063E0547FF0D2EE900063E0207F
:101D3A00E7127FE87E0312003E43CF100DEDC394F5
:041D4A003240E82219
:011D4E002272
:10185700752120121D2AE4F522E522C39563501B4A
:10186700E52212117A121236E522121188EEF0A340
:10187700EFF0AF22121640052280DEAF211521EFCF
:1018870070D1121D98121EA98F21121D2AE4F5226C
:10189700E522C395635009AF22121289052280F011
:0718A700AF211521EF70E3F2
:0118AE002217
:101D7400E4FFEFC39563501B75F002EF12117DE091
:101D8400FCA3E0FD75F002EF121188ECF0A3EDF076
:031D94000F80DFDE
:011D97002229
:101D4F00E4900088F0F52BE52BC39563500EAF2B75
:101D5F00121289AF2B120431052B80EBAF5EAE5DF3
:041D6F00AD5CAC5B60
:011D7300224D
:020431008F2C0E
:10043300E4F53475F002EF121188121236E52C122E
:10044300117D12126BF52EEC9EF52DE47F01FEFD5E
:10045300FCA92CA80112026A8F628E618D608C5FE9
:10046300AF2C121B478E328F33C3E52E9533E53203
:100473001211AA4005752F018003E4F52FE52F64BF
:100483000160030205B87431252C12119DE0C39459
:10049300FA500A7431252C12119DE004F012120156
:1004A300E4FBFAF9F8C3120232600302059B9000E1
:1004B30000E0F531121F03EF6028E4F52FF530E576
:1004C30030C39563500F121199E0C39401400205A4
:1004D3002F053080EAE52FC394034006740F2531BE
:1004E300F5317431252C12119DE0C395315003026F
:1004F300059BE4F52F121EB4EF7051F530E530C3C0
:100503009563501AE52C6530601012002E12119974
:10051300E0C39F4005752F018004053080DF121F63
:1005230003EF7052E52F704EF530E530C3956350FD
:1005330045E52C6530601112002E743925301212F6
:100543002EE0C39F4002802B053080DE121F03EF95
:100553007024F531F530E530C39563500F121199CE
:10056300E0C3940240020531053080EAE531C394CB
:10057300034003752F01E52FB40102D204E55E4564
:1005830062FFE55D4561FEE55C4560FDE55B455F5A
:100593008F5E8E5D8D5CF55B1211B3E4F01211CCAE
:1005A300E4F012118EE4F0A3F07411252CF582E42B
:1005B300340002078EAF2C121D011211A540081240
:1005C300122AE004F0800B900088E004F012122A53
:1005D300E4F012127FC3E49FFDE49EFCC3E52E9D6D
:1005E300EC1211AA40661211A550611211B3E41264
:1005F30011DA12123F60030206FB12118EE52D85FC
:100603002EF01200F2121E9E12118EE0FCA3E0C324
:100613001211C24009121183E475F0018021121EE8
:100623009EC3E49FFFE49EFE12118EE0FCA3E0C391
:100633001211C240030206FB12118374FFF5F0127C
:1006430000F212118EE4F0A3F00206FB900066E0C4
:10065300FFFD3395E0FCC3E49DFDE49CFCC3E52E64
:100663009DEC1211AA505A1211B31211D8E4F012D0
:1006730011B3E0FE75F00A84E5F07037EEC39464BD
:10068300400E1211B3E4F0D20590007F04F08023F2
:10069300121183C083C082E0FCA3E0FDEFA2E71345
:1006A300FF3395E0FEC3ED9FFFEC9ED082D083F035
:1006B300A3EFF0900081E0652C703D74FFF002061B
:1006C300FB12127F1211A5402F1211B312123F70A9
:1006D300271211DB1211D8E0B4201D1211DBE4F054
:1006E300900066E0A2E713A2E713FF3395E0FE1242
:1006F3001183EE8FF01200F21212014D4E4F700370
:1007030002079AE533AE327802CEA2E713CE13D8AE
:10071300F8FFC3E5339FFFE5329EFEC31211A650D7
:100723006F1211CCE004F0121EBF8F31E4F530E5F7
:1007330030C39563500F121199E0C3940140020531
:100743002F053080EAE52FC394034006900000E0B4
:10075300F5311211CCE0C3953140721211CCE4F0A3
:10076300AF62AE61AD60AC5F120225E55E5FFFE58F
:100773005D5EFEE55C5DFDE55B5C8F5E8E5D8D5CC5
:10078300F55B7431252CF582E43400F583E4F02223
:100793001211CCE014F0227431252C12119DE4F0D7
:1007A300E56314652C7026900088E0C39563401DB3
:1007B300E4F530E530C39563500D121199E0600301
:0D07C300752F01053080ECE52F7002C20497
:0107D0002206
:101D9800E4FFEFC39563501875F002EF12117DE070
:101DA800FCA3E0FDEF1211E9ECF0A3EDF00F80E2E7
:011DB8002208
:021289008F2DA7
:10128B00EF12116A12126BF52FEC9EF52EAF2D1289
:10129B001B47AD07AC06D3E52F9DEC1211F8500B95
:1012AB00C3E49DFFE49C1211F2500B121178E0FE87
:1012BB00A3E0FF021331ECA2E713FEED13FFD312F1
:1012CB0011F4500BC3E49FFFE49E1211F25027124E
:1012DB0011E7E0FCA3E0FDECC313FEED13FFC3ED40
:1012EB009FFDEC9EFC121178E0C313FEA3E0132DBF
:1012FB00FFEC3EFE80301211E7E0FCA3E0FDAE04F4
:10130B007803CEC313CE13D8F9FFC3ED9FFDEC9E2C
:10131B00FC121178E0FEA3E07803CEC313CE13D8F2
:10132B00F92DFFEC3EFE1211E7EEF0A3EFF0E52DE9
:08133B0012116AEEF0A3EFF0BD
:011343002287
:031F0900A205220C
:031F0C00D20522D9
:1019F400E4FFEFC39563502B74312F12119DE4F073
:101A040074512F1211B7E4F074772F1211D0E4F04F
:101A1400EF121190E4F0A3F074392F12122EE4F0B7
:101A24000F80CFE4F55EF55DF55CF55B90008174A5
:0B1A3400FFF0E4900084F0A3F0C20576
:011A3F002284
:02104B008F2BE9
:10104D00900086E0C394034035E4F090007FE0709B
:10105D0022F52CE52CC39563501975F002E52C1281
:10106D0011EC121236E52C121188EEF0A3EFF005FB
:10107D002C80E01219F4C205E490007FF02290005C
:10108D0080E004F0E0B52B08121D98E4900081F08B
:10109D00900080E0D3952B5003021169E4F52CE507
:1010AD002CC39563507A75F002E52C1211EC1212D7
:1010BD0036E52C12117D12126BFFEC9EAD07FC90E4
:1010CD00007FE070291212727802C333CE33CED86E
:1010DD00F91211BF4040E49BFFE49AFEEF7802C382
:1010ED0033CE33CED8F9C31211C0502A803212122A
:1010FD00727803C333CE33CED8F91211BF4017E443
:10110D009BFFE49AFEEF7803C333CE33CED8F9FFBD
:10111D00C31211C1400AAF2C121289052C0210AC5A
:10112D00E52CB56306900081E004F0E52B75F00821
:10113D009000801212514024E4F0C204900086E029
:10114D0004F0E52B75F004900081121251400DE46E
:0C115D00900086F0121D741219F4C205F7
:011169002263
:061DF000047A000000006F
:0D001E00757D00757C00757B00757A0022F1
:101DB900AF7DAE7CAD7BAC7A7B017A00790078008F
:101DC900EF2BF57DEE3AF57CED39F57BEC38F57ABC
:011DD90022E7
:091EDB00AF7DAE7CAD7BAC7A2238
:101C16008B218A2289238F278E268D258C24121EBE
:101C2600DBAB21AA22A9231202ADAF27AE26AD2532
:101C3600AC24AB21AA22A923758204758300120263
:021C4600C722B3
:1018AF008B218A228923AB21AA22A9237582047551
:1018BF00830012027DC004C005C006C007AB21AA79
:1018CF0022A9231202EBC3E57D9BFBE57C9AFAE587
:1018DF007B99F9E57A98F8D007D006D005D004C3E4
:1018EF00120232400A7F017E007D007C0080087F5B
:0818FF00007E007D007C002248
:1014B200021EC9E493A3F8E493A34003F68001F269
:1014C20008DFF48029E493A3F85407240CC8C3333B
:1014D200C4540F4420C8834004F456800146F6DF0A
:1014E200E4800B0102040810204080901DDAE47EA3
:1014F200019360BCA3FF543F30E509541FFEE493FF
:10150200A360010ECF54C025E060A840B8E493A3C5
:10151200FAE493A3F8E493A3C8C582C8CAC583CAF0
:10152200F0A3C8C582C8CAC583CADFE9DEE780BEA8
:011DF60000EC
:10005E00BB010CE58229F582E5833AF583E0225057
:10006E0006E92582F8E622BBFE06E92582F8E222A1
:0D007E00E58229F582E5833AF583E49322BB
:10008B00EF8DF0A4A8F0CF8CF0A428CE8DF0A42E89
:02009B00FE2243
:10009D00BC000BBE0029EF8DF084FFADF022E4CC47
:1000AD00F875F008EF2FFFEE33FEEC33FCEE9DEC10
:1000BD00984005FCEE9DFE0FD5F0E9E4CEFD22ED56
:1000CD00F8F5F0EE8420D21CFEADF075F008EF2FA0
:1000DD00FFED33FD4007985006D5F0F222C398FD91
:0500ED000FD5F0EA222E
:1000F200C5F0F8A3E028F0C5F0F8E5821582700299
:060102001583E038F02235
:10010800E88FF0A4CC8BF0A42CFCE98EF0A42CFC96
:100118008AF0EDA42CFCEA8EF0A4CDA8F08BF0A414
:100128002DCC3825F0FDE98FF0A42CCD35F0FCEB73
:100138008EF0A4FEA9F0EB8FF0A4CFC5F02ECD3938
:0F014800FEE43CFCEAA42DCE35F0FDE43CFC22A5
:1001570075F008758200EF2FFFEE33FECD33CDCC5F
:1001670033CCC58233C5829BED9AEC99E5829840E2
:100177000CF582EE9BFEED9AFDEC99FC0FD5F0D6BF
:10018700E4CEFBE4CDFAE4CCF9A88222B800C1B9E9
:100197000059BA002DEC8BF084CFCECDFCE5F0CB27
:1001A700F97818EF2FFFEE33FEED33FDEC33FCEB60
:1001B70033FB10D703994004EB99FB0FD8E5E4F91B
:1001C700FA227818EF2FFFEE33FEED33FDEC33FC08
:1001D700C933C910D7059BE99A4007EC9BFCE99AFC
:1001E700F90FD8E0E4C9FAE4CCFB2275F010EF2F41
:1001F700FFEE33FEED33FDCC33CCC833C810D70741
:100207009BEC9AE899400AED9BFDEC9AFCE899F87B
:0E0217000FD5F0DAE4CDFBE4CCFAE4C8F9220E
:101A8400C2D5E830E70FB2D5E4C39BFBE49AFAE48D
:101A940099F9E498F8EC30E717B2D5121ABA1201A2
:101AA40093E4C39BFBE49AFAE499F9E498F880037D
:101AB40012019330D50DE4C39FFFE49EFEE49DFD27
:041AC400E49CFC2280
:0D022500CFF4CFCEF4CECDF4CDCCF4CC226E
:10023200EB9FF5F0EA9E42F0E99D42F0E89C45F022
:010242002299
:10024300E8600FECC313FCED13FDEE13FEEF13FF99
:03025300D8F122BD
:10025600E86010ECA2E713FCED13FDEE13FEEF13BE
:04026600FFD8F022AB
:10026A00E8600FEFC333FFEE33FEED33FDEC33FCF2
:03027A00D8F12296
:10027D00BB010DE58229F582E5833AF5830203AFD3
:10028D005007E92582F80203A3BBFE07E92582F892
:10029D000203BBE58229F582E5833AF5830203C7A4
:1002AD00BB010789828A830204195005E9F802040B
:0A02BD000DBBFE05E9F8020425223E
:1002C700BB010DE58229F582E5833AF5830204191E
:1002D7005007E92582F802040DBBFE07E92582F8DD
:0402E70002042522C6
:1002EB00BB010789828A830203E45005E9F8020304
:1002FB00D7BBFE05E9F80203F089828A830203FD6E
:0C030B00A42582F582E5F03583F58322FD
:10031700D083D082F8E4937012740193700DA3A375
:1003270093F8740193F5828883E473740293686089
:06033700EFA3A3A380DF89
:10033D00D083D082E4937012740193700DA3A393B4
:10034D00F8740193F5828883E4737402936C7012D0
:10035D007403936D700C7404936E70067405936F33
:0A036D0060DDA3A3A3A3A3A380CA2D
:10037700EF4E6012EF60010EEDBB010B89828A839D
:10038700F0A3DFFCDEFA2289F05007F709DFFCA9AA
:0C039700F022BBFEFCF309DFFCA9F02201
:0C03A300E6FC08E6FD08E6FE08E6FF2286
:0C03AF00E0FCA3E0FDA3E0FEA3E0FF22C1
:0C03BB00E2FC08E2FD08E2FE08E2FF227E
:1003C700E493FC740193FD740293FE740393FF227C
:0D03D700E6FB08E6F908E6FA08E6CBF82296
:0C03E400E0F8A3E0F9A3E0FAA3E0FB229C
:0D03F000E2FB08E2F908E2FA08E2CBF8228D
:1003FD00E493F8740193F9740293FA740393FB2256
:0C040D00ECF608EDF608EEF608EFF6221B
:0C041900ECF0A3EDF0A3EEF0A3EFF02256
:0C042500ECF208EDF208EEF208EFF22213
:00000001FF
