:0300000002118E5C
:10118E0078FFE4F6D8FD9000007F007E04E4F0A323
:0A119E00DFFCDEFA7581770211E331
:091B3C001218CD1217F180FB22F2
:1018CD0012001E7D807C257F021212B07525807559
:1018DD0024257523007522007F021215F0121AE9D6
:1018ED00121AC5755D01751D0F12122843CF10D246
:0218FD00AF2218
:1017F10043CF101219907B007A00793B121598ECB7
:101801004D4E4F60297B007A00793B7F0A7E007D37
:10181100007C001218FFAF3AEFFB7A007DFB7FFAE4
:0F182100121645AB4CAA4B7DFB7FFA1216912293
:10196200AF1D7E00EF640F4E700D751D64753A1148
:10197200754B00754C3322AF1D7E00EF64644E70D0
:0E1982000C751D0F753A22754B00754C4422F2
:1017B100AF087E00EF4E701C7508015380F943801D
:1017C1000275160075170075180075190075150159
:1017D100750900227508005380F9438004751600CD
:1017E1007517007518007519007515007509012226
:041B5D00753A0322B0
:041B6100753A0422AB
:041B6500753A0222A9
:041B6900753A0122A6
:041B6D00753A05229E
:041B7100753A062299
:041B7500753A092292
:0F1AE900439A0743A120C280C2A5C281C28222B4
:101AC500758E07438901758AA2758CFEC28CD2A9D1
:031AD500D28C228E
:03000B00020E8260
:100E8200C0E0C0F0C083C082C0D075D000C000C036
:100E920001C002C003C004C005C006C007758AA213
:100EA200758CFE121A74051CAF1C7E00D3EF94647D
:100EB200EE648094804003751C00E51CC3951D40C0
:100EC20004C2808002D2801213B5E5156022051794
:100ED200E51770020516D3E51794DCE51694054074
:100EE2000F7516007517007515007509015380F905
:100EF200E50960220519E51970020518D3E5199470
:100F0200DCE5189405400F75180075190075150178
:100F12007509005380F9E50D6021051BE51BAE1A2A
:100F22007002051A14FFD3EF9408EE9407400C7573
:100F32001A00751B00750D00753A21E50A6023053C
:100F420014E514AE137002051314FFD3EF9410EEE0
:100F5200940E400E751300751400750A00C2A57533
:100F62003A20D007D006D005D004D003D002D00159
:0D0F7200D000D0D0D082D083D0F0D0E032BB
:03002B00021B793C
:031B7900C2CF32A6
:03001B0002000AD6
:01000A0032C3
:100A0D007F007E007D007C00AB65AA64A963A862AF
:100A1D00C31202327003020BC7AF65AE64AD63AC97
:100A2D00628F118E108D0F8C0E7F087E007D007CE5
:100A3D0000AB11AA10A90FA80EC31202327014E553
:100A4D005D6010E5127003020BE37512001219625E
:100A5D00020BE37F107E007D007C00AB11AA10A974
:100A6D000FA80EC31202327014E55D6010E512700E
:100A7D0003020BE37512001217B1020BE37F207E08
:100A8D00007D007C00AB11AA10A90FA80EC31202A5
:100A9D00327014E55D6010E5127003020BE3751200
:100AAD0000121B5D020BE37F007E107D007C00AB0E
:100ABD0011AA10A90FA80EC31202327014E55D60C1
:100ACD0010E5127003020BE3751200121B75020B79
:100ADD00E37F007E407D007C00AB11AA10A90FA81A
:100AED000EC3120232700DE5127003020BE3751284
:100AFD0000020BE37F007E807D007C00AB11AA100D
:100B0D00A90FA80EC31202327014E55D6010E51234
:100B1D007003020BE3751200121B69020BE37F00D9
:100B2D007E007D047C00AB11AA10A90FA80EC31284
:100B3D0002327014E55D6010E5127003020BE3756F
:100B4D001200121B65020BE37F007E007D087C0006
:100B5D00AB11AA10A90FA80EC31202327010E55DD9
:100B6D00600CE5126070751200121B6180687F00C9
:100B7D007E017D007C00AB11AA10A90FA80EC31237
:100B8D0002327010E55D600CE512604A75120012BC
:100B9D001B6D80427F007E027D007C00AB11AA1090
:100BAD00A90FA80EC3120232702CE55D6028E51264
:100BBD006024751200121B71801C751100751000D8
:100BCD00750F00750E00E512700C751201753A5512
:100BDD00754B00754C00121AF8EF605AAF527E003B
:100BED00EF7F00FEAD537C00EE4CFEEF4DFFE4FCBD
:100BFD00FD8F618E608D5F8C5E7E007F077D007B3B
:100C0D00007A007950120377AC5EAD5FAE60AF61D4
:100C1D0012033D0C30000000330C3A00000044007C
:100C2D00000C43751201753A11751D642275120180
:070C3D00753A22751D0F221C
:1013B5007F007E407D007C00AB11AA10A90FA80E0E
:1013C500C31202327054E55B7005755B01055CE57F
:1013D5005C30E005755D008003755D01E55D701DA0
:1013E500C3E56794B8E566940B50090567E5677032
:1013F50002056622756600756700D2A522C3E567FA
:1014050094B8E566940B50090567E56770020566B3
:0D14150022756600756700C2A522755B0098
:0114220022A7
:1019900043CF10900063E0FFEF30E71C900063E05E
:1019A000FFEF547FFF900063EFF01207D18F658E39
:0C19B000648D638C62121B7F120A0D22F2
:1012B0008F218C228D235391F343920C43985043FA
:1012C0008E02438920438780AF21E4FCFDFE7B40F2
:1012D0007A42790F7800120108C004C005C006C028
:1012E00007AE22AF23AB07AA06E4F9F8D007D00671
:1012F000D005D00412176D78081202568F8DAF21D9
:10130000E4FCFDFE7B407A42790F7800120108C0B0
:1013100004C005C006C007AE22AF23AB07AA06E48F
:10132000F9F8D007D006D005D00412176D8F8BC204
:061330008EC2ABC2AC222C
:1015F0008F2153A1FC43A203758FC0759D50AF216D
:10160000E4FCFDFE7B407A42790F7800120108ABC2
:1016100025AA24A923A8221201938F9EAF21E4FCBE
:10162000FDFE7B407A42790F7800120108AB25AAB3
:1016300024A923A82212019378081202438F9575DA
:05164000A901D2AF2258
:0B004E008F2FC299852F993099FD2259
:061867008B2C8A2D892E56
:10186D00754D00AF4D7E00C3EF9407EE64809480FC
:10187D005018AB2CAA2DA92EAF4D8F827583001257
:0C188D00005EFF12004E054D80D97F0068
:01189900222C
:081645008F218D228A238B24E2
:10164D007E007F077D007B007A0079251203778568
:10165D002125852226E523FF7E00EF54FFF527AFD8
:10166D0024EF54FFF528E5252526FFEF2527FFEF6D
:10167D002528F529752A0D752B0A7B007A00792509
:03168D00121867C9
:011690002237
:0D000E008F2F852F9FE55860FC755800224C
:06189A008B2C8A2D892E23
:1018A000754E00AF4E7E00C3EF9407EE64809480C7
:1018B0005018AB2CAA2DA92EAF4E8F827583001223
:0C18C000005EFF12000E054E80D97F0074
:0118CC0022F9
:081691008F218D228A238B2496
:101699007E007F077D007B007A007925120377851C
:1016A9002125852226E523FF7E00EF54FFF527AF8C
:1016B90024EF54FFF528E5252526FFEF2527FFEF21
:1016C9002528F529752A0D752B0A7B007A007925BD
:0316D90012189A4A
:0116DC0022EB
:061B5700859F5AAF5A22DF
:0E1AF800E55930E7067559007F01227F002274
:10148500121B578F57E5595480FF7E00EF4E704E63
:10149500E55930E612AF577E00EF640A4E700475C9
:1014A50059802275590022AF577E00EF640D4E70AA
:1014B5000475594022AF5974502FF8A6570559AFF6
:1014C500507E00EF64FA4E6003755900AF597E00F7
:0F14D500D3EF9407EE6480948040037559002292
:03003B0002193176
:10193100C0E0C0D075D000C000C006C007E59D3032
:10194100E106539DFD755801E59D30E006539DFE6E
:10195100754F01121485D007D006D000D0D0D0E049
:011961003253
:101423000000000000000005000A0BB800C80064BB
:1014330000020000000000040000FFFFFFFFFFFFA9
:101443000014022604081705015402260408150592
:101453000161022604080F050098022604081405FA
:10146300014C02260408150500A0022604081405F1
:10147300014A022604081305011002260408100578
:0214830001194D
:0F1A950041007F00C103C102C100C10101760001
:0700030053CEF043A90422D3
:03004B00021B4550
:091B450053CEBF53CE7FD2013212
:0B1B060090142DE493FE740193FF2265
:0B1B1100901431E493FE740193FF2256
:0B1B1C0090142BE493FE740193FF2251
:031B7C007F0122C4
:101830008F38AF38EF75F008A4244BF582E43414E8
:10184000F583E493FF7E00EF7F00FEAD38ED75F089
:1018500008A4244CF582E43414F583E493FD7C0061
:07186000EF2DFFEE3CFE221C
:101AAF008F39AF39EF75F008A42448F582E4341468
:061ABF00F583E493FF2211
:0B1B2700901425E493FE740193FF224C
:101AD8008F39AF3974592FF582E43400F583E0FF6C
:011AE80022DB
:0A1B3200900000E0FFEFC313FF2254
:0C002E00900000E0FFEF75F00384FF225B
:0219BC008F3565
:1019BE00AF351218308E368F37AE36E5377803C313
:1019CE0033CE33CED8F9FF7C007D0A12009D8E36C1
:0619DE008F37AE36AF3773
:0119E40022E0
:1010EB007523007524007528387527D075260C7567
:1010FB002500752200AF227E00C3EF9417EE6480AB
:10110B009480507BAF28AE27AD26AC257801120218
:10111B00438F288E278D268C2530D75EAF237419ED
:10112B002FF582E43400F583E522F0AF247E00C373
:10113B00EF9401EE64809480502F7F017E007D0040
:10114B007C00A922A80112026AEF5400FFEE5402A0
:10115B00FEED5400FDEC5400FCEC4D4E4F600AAF1D
:10116B0024052474772FF8A6230523AF237E00C311
:10117B00EF9408EE648094805005052202110085DF
:02118B002370CF
:01118D00223F
:101729008F39E539120317174300174A0117510278
:10173900175803175F040000176A901445E493FFD4
:1017490022901446E493FF22901447E493FF2290D9
:101759001447E493FF22901437E493FE740193FF36
:04176900227F0022B9
:1014E400901429E493FE740193FF900000EFF090B0
:1014F4001443E493FE740193FF900066EFF012101E
:10150400EB752100E521C395705025AF21EF75F0EF
:1015140008A42449F582E43414F583E493FFAE214E
:1015240074592EF582E43400F583EFF0052180D45C
:0B153400900064E4F0A3E4F012000358
:01153F002289
:1007D100752200752A0075290075280075270030DB
:1007E100030302091F121B82500302090F121A0A86
:1007F1008F268E258D248C23752100E521C39570CC
:10080100504DAF26AE25AD24AC2378011202438FA3
:10081100268E258D248C2330D7317F017E007D00EB
:100821007C00AB2174192BF582E43400F583E0F9E7
:10083100A80112026AE52A4FF52AE5294EF529E5B4
:10084100284DF528E5274CF5270522052180ACAF79
:10085100227E00C3EF9402EE64809480401ED20495
:10086100AF227E00C3EF9403EE64809480400512B2
:100871001B858008121B27EF6002C2042004307F11
:10088100007E007D007C00AB2AAA29A928A827C3E5
:100891001202326010900065E004F070069000646E
:1008A100E004F08024900064E4F0A3E4F0801A9066
:1008B1000062E004F07006900061E004F0752A0027
:1008C100752900752800752700121B06900064E049
:1008D100FCA3E0FDD3ED9FEC9E400B121B85900025
:1008E10064E4F0A3E4F0900061E0FEA3E0FFD3EF45
:1008F100942CEE94015003020A04121B8590007F90
:100901007401F0900061E4F0A3E4F0020A04901491
:1009110033E493FE740193FF120C44020A04AF6B9B
:10092100AE6AAD69AC688F268E258D248C23752126
:1009310000E521C395705050AF21120F7FAF26AE55
:1009410025AD24AC2378011202438F268E258D24F8
:100951008C2330D72F7F017E007D007C00AB21747A
:10096100192BF582E43400F583E0F9A80112026A3B
:10097100E52A4FF52AE5294EF529E5284DF528E523
:10098100274CF527052180A97876067876E6FF7E43
:1009910000D3EF9401EE648094804067787676000E
:1009A100752100E521C3957050577F017E007D00C0
:1009B1007C007875E6FB74772BF8E6F9A801120242
:1009C1006AEF556BFFEE556AFEED5569FDEC556812
:1009D100FCEC4D4E4F7026AF21EF25E02421F5822E
:1009E100E43400F583E0FEA3E0FFAD21ED25E02432
:1009F10001F582E43400F583EEF0A3EFF0052180E8
:0B0A0100A2C203AF2AAE29AD28AC272B
:010A0C0022C7
:041AA4004100860077
:100D630075F00290006712030BE0FEA3E0FFE52D90
:100D730075F00290002102030BE52C75F002900040
:100D83000102030BE52C75F00290004102030B7482
:100D9300312530F582E43400F58322D3E52E9FEE2E
:100DA3006480F8E52D648098227451252CF582E443
:100DB3003400F58322D3FFED9FEE6480F8EC64806A
:100DC30098227477252CF582E43400F58322E0041D
:100DD300F07411252CF582E43400F58322E52D759A
:100DE300F00290006702030BFEC3E52F9FEE6480C1
:100DF300F8E52E64809822E56B556FFFE56A556E22
:100E0300FEE569556DFDE568556CFC227E0090009A
:100E130082E0FCA3E0FD12008B8EE78FE67F0222C7
:100E23007439252CF582E43400F58322E0FEA3E037
:100E3300FF75F00222E4F0FFFEFDFCAB6BAA6AA98A
:100E430069A868C3020232A4FFE0C39FE5F064808F
:100E5300F8748098227D0A12009DAD037C00020085
:100E63008BE0FCA3E0C39F22900066E0FB3395E098
:0F0E7300FAEBAE0222900066E0FF3395E0FE221C
:0C003E00EF4E6007EF1F70F81E80F522E7
:021336008F2303
:10133800121AD8900089EFF0AF23121AAFEFFB9082
:101348000083E025E0FF900082E033FE7C00120E6F
:1013580058E523120D7E120E64EC9E500990008908
:10136800E06049148036AF23121AAFEFFB90008279
:10137800E0FEA3E0FF7C007D0712008B120E58757B
:10138800F002E523120D81E0FCA3E0D39FEC9E4020
:101398001B900089E0FF647E6012EF04FF745925FA
:0C13A80023F582E43400F583EFF0D20559
:0113B4002216
:03005B0002103A56
:10103A00C0E0C0F0C083C082C0D075D000C000C07C
:0D104A0001C002C003C004C005C006C007FD
:10105700C206900087E0120D73E5E5F0A3E5E4F022
:10106700900087E004F0E0C39570400BE4F0900037
:1010770063E04480F08002D2067F02121729EFC492
:1010870054F0F5E1900087E0FF121AAF120E0F122D
:101097001729EFC454F0FEC006E4FF121729D0E069
:1010A7002FF5E1900087E0FF121AD8E5E254804F50
:1010B700F5E2900087E02419F582E43400F583E037
:0910C7004480F5E8300602D2EE87
:1010D000D007D006D005D004D003D002D001D00074
:0B10E000D0D0D082D083D0F0D0E0321E
:1012280075FE8543FF2043B910D2AF75E880C2052B
:10123800E4900087F0900063F01214E4E4FF1217C2
:1012480029EF2401FDE433FC7E0B7FB812009D904A
:101258000082EEF0A3EFF0E4FF121AAF120E0F12A5
:101268001729EFC454F0FEC006E4FF121729D0E096
:101278002FF5E17F04121729EF6008E5E254804456
:1012880080F5E27F03121729E5E254804FF5E27FEB
:10129800011217298FE31216DD43A910900019E0F7
:0812A80042E8121540021A2F62
:031B7F00D2EE2281
:1019E500E4FD900063E0547FF0D2EE900063E020C8
:1019F500E7127FE87E0312003E43CF100DEDC3943E
:041A05003240E82261
:011A090022BA
:101540007521201219E5E4F522E522C39570501BA0
:10155000E522120D73120E2FE522120D81EEF0A37B
:10156000EFF0AF22121336052280DEAF211521EFF6
:1015700070D1121A53121B1C8F211219E5E4F522A7
:10158000E522C395705009AF22120F7F052280F02B
:07159000AF211521EF70E30C
:011597002231
:101A2F00E4FFEFC39570501B75F002EF120D76E0D7
:101A3F00FCA3E0FD75F002EF120D81ECF0A3EDF0C9
:031A4F000F80DF26
:011A52002271
:101A0A00E4900088F0F52BE52BC39570500EAF2BB0
:101A1A00120F7FAF2B120431052B80EBAF6BAE6A2E
:041A2A00AD69AC688E
:011A2E002295
:020431008F2C0E
:10043300E4F53475F002EF120D81120E2FE52C1244
:100443000D76120E64F52EEC9EF52DE47F01FEFD74
:10045300FCA92CA80112026A8F6F8E6E8D6D8C6CB5
:10046300AF2C1218308E328F33C3E52E9533E5321D
:10047300120DA34005752F018003E4F52FE52F64CA
:100483000160030205B87431252C120D96E0C39464
:10049300FA500A7431252C120D96E004F0120DFA6D
:1004A300E4FBFAF9F8C3120232600302059B9000E1
:1004B30000E0F531121B7CEF6028E4F52FF530E501
:1004C30030C39570500F120D92E0C39401400205A2
:1004D3002F053080EAE52FC394034006740F2531BE
:1004E300F5317431252C120D96E0C395315003027A
:1004F300059BE4F52F121B27EF7051F530E530C350
:100503009570501AE52C6530601012002E120D9272
:10051300E0C39F4005752F018004053080DF121B67
:100523007CEF7052E52F704EF530E530C395705077
:1005330045E52C6530601112002E74392530120EFA
:1005430027E0C39F4002802B053080DE121B7CEF27
:100553007024F531F530E530C39570500F120D92CC
:10056300E0C3940240020531053080EAE531C394CB
:10057300034003752F01E52FB40102D204E56B4557
:100583006FFFE56A456EFEE569456DFDE568456CFF
:100593008F6B8E6A8D69F568120DACE4F0120DC590
:1005A300E4F0120D87E4F0A3F07411252CF582E436
:1005B300340002078EAF2C1219BC120D9E40081294
:1005C3000E23E004F0800B900088E004F0120E2369
:1005D300E4F0120E78C3E49FFDE49EFCC3E52E9D78
:1005E300EC120DA34066120D9E5061120DACE41285
:1005F3000DD3120E3860030206FB120D87E52D851D
:100603002EF01200F2121B11120D87E0FCA3E0C3BF
:10061300120DBB4009120D7CE475F0018021121B01
:1006230011C3E49FFFE49EFE120D87E0FCA3E0C329
:10063300120DBB40030206FB120D7C74FFF5F01292
:1006430000F2120D87E4F0A3F00206FB900066E0CF
:10065300FFFD3395E0FCC3E49DFDE49CFCC3E52E64
:100663009DEC120DA3505A120DAC120DD1E4F012F1
:100673000DACE0FE75F00A84E5F07037EEC39464C8
:10068300400E120DACE4F0D20590007F04F08023FD
:10069300120D7CC083C082E0FCA3E0FDEFA2E71350
:1006A300FF3395E0FEC3ED9FFFEC9ED082D083F035
:1006B300A3EFF0900081E0652C703D74FFF002061B
:1006C300FB120E78120D9E402F120DAC120E3870D5
:1006D30027120DD4120DD1E0B4201D120DD4E4F075
:1006E300900066E0A2E713A2E713FF3395E0FE1242
:1006F3000D7CEE8FF01200F2120DFA4D4E4F700387
:1007030002079AE533AE327802CEA2E713CE13D8AE
:10071300F8FFC3E5339FFFE5329EFEC3120D9F50E2
:100723006F120DC5E004F0121B328F31E4F530E592
:1007330030C39570500F120D92E0C394014002052F
:100743002F053080EAE52FC394034006900000E0B4
:10075300F531120DC5E0C395314072120DC5E4F0B9
:10076300AF6FAE6EAD6DAC6C120225E56B5FFFE54E
:100773006A5EFEE5695DFDE5685C8F6B8E6A8D6977
:10078300F5687431252CF582E43400F583E4F02216
:10079300120DC5E014F0227431252C120D96E4F0ED
:1007A300E57014652C7026900088E0C39570401D99
:1007B300E4F530E530C39570500D120D92E06003FF
:0D07C300752F01053080ECE52F7002C20497
:0107D0002206
:101A5300E4FFEFC39570501875F002EF120D76E0B6
:101A6300FCA3E0FDEF120DE2ECF0A3EDF00F80E23A
:011A73002250
:020F7F008F2DB4
:100F8100EF120D63120E64F52FEC9EF52EAF2D12AC
:100F91001830AD07AC06D3E52F9DEC120DF1500BC7
:100FA100C3E49DFFE49C120DEB500B120D71E0FEAA
:100FB100A3E0FF021027ECA2E713FEED13FFD3120B
:100FC1000DED500BC3E49FFFE49E120DEB50271271
:100FD1000DE0E0FCA3E0FDECC313FEED13FFC3ED58
:100FE1009FFDEC9EFC120D71E0C313FEA3E0132DD7
:100FF100FFEC3EFE8030120DE0E0FCA3E0FDAE040C
:101001007803CEC313CE13D8F9FFC3ED9FFDEC9E39
:10101100FC120D71E0FEA3E07803CEC313CE13D80A
:10102100F92DFFEC3EFE120DE0EEF0A3EFF0E52D01
:08103100120D63EEF0A3EFF0D5
:011039002294
:031B8200A2052297
:031B8500D2052264
:1016DD00E4FFEFC39570502B74312F120D96E4F08B
:1016ED0074512F120DB0E4F074772F120DC9E4F080
:1016FD00EF120D89E4F0A3F074392F120E27E4F0E8
:10170D000F80CFE4F56BF56AF569F568900081748B
:0B171D00FFF0E4900084F0A3F0C20590
:01172800229E
:020C44008F2BF4
:100C4600900086E0C394034035E4F090007FE070A6
:100C560022F52CE52CC39570501975F002E52C127F
:100C66000DE5120E2FE52C120D81EEF0A3EFF00527
:100C76002C80E01216DDC205E490007FF022900081
:100C860080E004F0E0B52B08121A53E4900081F0DE
:100C9600900080E0D3952B5003020D62E4F52CE51D
:100CA6002CC39570507A75F002E52C120DE5120EE4
:100CB6002FE52C120D76120E64FFEC9EAD07FC900C
:100CC600007FE07029120E6B7802C333CE33CED884
:100CD600F9120DB84040E49BFFE49AFEEF7802C398
:100CE60033CE33CED8F9C3120DB9502A8032120E44
:100CF6006B7803C333CE33CED8F9120DB84017E460
:100D06009BFFE49AFEEF7803C333CE33CED8F9FFC8
:100D1600C3120DBA400AAF2C120F7F052C020CA588
:100D2600E52CB57006900081E004F0E52B75F0081F
:100D3600900080120E4A4024E4F0C204900086E03F
:100D460004F0E52B75F004900081120E4A400DE484
:0C0D5600900086F0121A2F1216DDC20564
:010D6200226E
:061AA800047100000000C3
:0D001E007574007573007572007571002215
:101A7400AF74AE73AD72AC717B017A0079007800FB
:101A8400EF2BF574EE3AF573ED39F572EC38F57128
:011A9400222F
:091B4E00AF74AE73AD72AC7122EC
:1018FF008B218A2289238F278E268D258C24121BDC
:10190F004EAB21AA22A9231202ADAF27AE26AD25D9
:10191F00AC24AB21AA22A92375820475830012027D
:02192F00C722CD
:101598008B218A228923AB21AA22A923758204756B
:1015A800830012027DC004C005C006C007AB21AA93
:1015B80022A9231202EBC3E5749BFBE5739AFAE5B3
:1015C8007299F9E57198F8D007D006D005D004C310
:1015D800120232400A7F017E007D007C0080087F75
:0815E800007E007D007C002262
:1011A800021B3CE493A3F8E493A34003F68001F206
:1011B80008DFF48029E493A3F85407240CC8C33348
:1011C800C4540F4420C8834004F456800146F6DF17
:1011D800E4800B0102040810204080901A95E47EF8
:1011E800019360BCA3FF543F30E509541FFEE4930C
:1011F800A360010ECF54C025E060A840B8E493A3D3
:10120800FAE493A3F8E493A3C8C582C8CAC583CAFD
:10121800F0A3C8C582C8CAC583CADFE9DEE780BEB5
:011AAE000037
:10005E00BB010CE58229F582E5833AF583E0225057
:10006E0006E92582F8E622BBFE06E92582F8E222A1
:0D007E00E58229F582E5833AF583E49322BB
:10008B00EF8DF0A4A8F0CF8CF0A428CE8DF0A42E89
:02009B00FE2243
:10009D00BC000BBE0029EF8DF084FFADF022E4CC47
:1000AD00F875F008EF2FFFEE33FEEC33FCEE9DEC10
:1000BD00984005FCEE9DFE0FD5F0E9E4CEFD22ED56
:1000CD00F8F5F0EE8420D21CFEADF075F008EF2FA0
:1000DD00FFED33FD4007985006D5F0F222C398FD91
:0500ED000FD5F0EA222E
:1000F200C5F0F8A3E028F0C5F0F8E5821582700299
:060102001583E038F02235
:10010800E88FF0A4CC8BF0A42CFCE98EF0A42CFC96
:100118008AF0EDA42CFCEA8EF0A4CDA8F08BF0A414
:100128002DCC3825F0FDE98FF0A42CCD35F0FCEB73
:100138008EF0A4FEA9F0EB8FF0A4CFC5F02ECD3938
:0F014800FEE43CFCEAA42DCE35F0FDE43CFC22A5
:1001570075F008758200EF2FFFEE33FECD33CDCC5F
:1001670033CCC58233C5829BED9AEC99E5829840E2
:100177000CF582EE9BFEED9AFDEC99FC0FD5F0D6BF
:10018700E4CEFBE4CDFAE4CCF9A88222B800C1B9E9
:100197000059BA002DEC8BF084CFCECDFCE5F0CB27
:1001A700F97818EF2FFFEE33FEED33FDEC33FCEB60
:1001B70033FB10D703994004EB99FB0FD8E5E4F91B
:1001C700FA227818EF2FFFEE33FEED33FDEC33FC08
:1001D700C933C910D7059BE99A4007EC9BFCE99AFC
:1001E700F90FD8E0E4C9FAE4CCFB2275F010EF2F41
:1001F700FFEE33FEED33FDCC33CCC833C810D70741
:100207009BEC9AE899400AED9BFDEC9AFCE899F87B
:0E0217000FD5F0DAE4CDFBE4CCFAE4C8F9220E
:10176D00C2D5E830E70FB2D5E4C39BFBE49AFAE4A7
:10177D0099F9E498F8EC30E717B2D51217A31201D6
:10178D0093E4C39BFBE49AFAE499F9E498F8800397
:10179D0012019330D50DE4C39FFFE49EFEE49DFD41
:0417AD00E49CFC229A
:0D022500CFF4CFCEF4CECDF4CDCCF4CC226E
:10023200EB9FF5F0EA9E42F0E99D42F0E89C45F022
:010242002299
:10024300E8600FECC313FCED13FDEE13FEEF13FF99
:03025300D8F122BD
:10025600E86010ECA2E713FCED13FDEE13FEEF13BE
:04026600FFD8F022AB
:10026A00E8600FEFC333FFEE33FEED33FDEC33FCF2
:03027A00D8F12296
:10027D00BB010DE58229F582E5833AF5830203AFD3
:10028D005007E92582F80203A3BBFE07E92582F892
:10029D000203BBE58229F582E5833AF5830203C7A4
:1002AD00BB010789828A830204195005E9F802040B
:0A02BD000DBBFE05E9F8020425223E
:1002C700BB010DE58229F582E5833AF5830204191E
:1002D7005007E92582F802040DBBFE07E92582F8DD
:0402E70002042522C6
:1002EB00BB010789828A830203E45005E9F8020304
:1002FB00D7BBFE05E9F80203F089828A830203FD6E
:0C030B00A42582F582E5F03583F58322FD
:10031700D083D082F8E4937012740193700DA3A375
:1003270093F8740193F5828883E473740293686089
:06033700EFA3A3A380DF89
:10033D00D083D082E4937012740193700DA3A393B4
:10034D00F8740193F5828883E4737402936C7012D0
:10035D007403936D700C7404936E70067405936F33
:0A036D0060DDA3A3A3A3A3A380CA2D
:10037700EF4E6012EF60010EEDBB010B89828A839D
:10038700F0A3DFFCDEFA2289F05007F709DFFCA9AA
:0C039700F022BBFEFCF309DFFCA9F02201
:0C03A300E6FC08E6FD08E6FE08E6FF2286
:0C03AF00E0FCA3E0FDA3E0FEA3E0FF22C1
:0C03BB00E2FC08E2FD08E2FE08E2FF227E
:1003C700E493FC740193FD740293FE740393FF227C
:0D03D700E6FB08E6F908E6FA08E6CBF82296
:0C03E400E0F8A3E0F9A3E0FAA3E0FB229C
:0D03F000E2FB08E2F908E2FA08E2CBF8228D
:1003FD00E493F8740193F9740293FA740393FB2256
:0C040D00ECF608EDF608EEF608EFF6221B
:0C041900ECF0A3EDF0A3EEF0A3EFF02256
:0C042500ECF208EDF208EEF208EFF22213
:00000001FF
